:020000000C945E
:1000020046000C9400000C9400000C9400000C9428
:1000120000000C9400000C9400000C9400000C945E
:1000220000000C9400000C9400000C9400000C944E
:1000320000000C9400000C9400000C9400000C943E
:1000420000000C9400000C9400000C9400000C942E
:1000520000007E30EDF933DBDFF0FFFB0102040824
:1000620010204080010003000100020002006A002B
:100072000A006002540008006A025E0001000400E7
:1000820066000100070068000000F894EE27ECBB50
:10009200F1E0FBBFEBBFE5BFF8E1F1BDE1BD8DE0F3
:1000A200A2E0BB27ED938A95E9F780E098E0A0E60D
:1000B200ED930197E9F7ECE6F0E0859195910097D1
:1000C20061F0A591B59105901590BF01F0010590E1
:1000D2000D920197E1F7FB01F0CFEFE5EDBFE8E00C
:1000E200EEBFC0E6D2E00C94F100C09803D1C098F4
:1000F20009D10895C09AFED0C09A04D108950AD1B8
:100102000CD117D119D1EBE4EBBBF4DF089502D186
:1001120016D118D117D110D115D10BD1FED0089517
:10012200F9D00DD1EEE4EBBBE5DFE4E5EBBBE2DFBA
:1001320006D108D1FED0F1D008D1ECE0EBBBD5DF7F
:1001420055240895E7D004D107D1F3D0F8D0EEE6D4
:1001520007D1689420F80895DDD0FAD0FDD0E9D017
:10016200E4E4EBBBC7DFE9E6EBBBC4DFE3E7F8D0CF
:10017200E89420F80895E0E0EBBBEFEFEABBE0E0A3
:10018200E8BBEFEFE7BBE0E0E5BBEFEFE4BBE0E0AD
:10019200E2BBE1BBE3BFE2BFECBFEFBDEEBDEDBD35
:1001A200ECBDE7BDE6BDEBBDEABDE9BDE8BDE2BD24
:1001B200E5BDE4BDE3BDE5BFE4BFE9BFE0E8E8B902
:1001C200E0E0E0BFE8E3EBBB90DFE2E0EBBB8DDF1A
:1001D2005524689420F8E1E04E2EE3E07E2E089547
:1001E20000E010E020E030E0C6DF00E310E030E0A5
:1001F20097DF552011F00C945601829B0DC0BED0A2
:100202008299FECF0133E0E01E0710F0015010404A
:1002120081D0F801EBBB6EDF809B0DC0AFD080991F
:10022200FECF0933E0E01E0710F40F5F1F4F72D0BC
:10023200F801EBBB5FDF819B37C03F5F9FD08199A5
:10024200FECFE32FE150F0E0EE58FD4F008300E3D4
:1002520010E060D020E0231728F4EAE2EBBB4ADF8B
:100262002F5FF9CF343001F5A0917202A13361F40E
:10027200E0917302E23341F4E0917402E13321F43C
:10028200E0917502E33309F004C039DFE5E05E2E48
:100292000BC03DDF30E000E310E0E8EBFBE0FA9357
:1002A200EA930E94C5013CDFA4CFE1E0E515E9F342
:1002B200E2E0E515E9F4E3E0E515C9F443DF829BEA
:1002C20004C05CD08299FECF47DF809B05C056D028
:1002D2008099FECF1FD036DF819BF1CF819B06C074
:1002E2004DD08199FECFE5E05E2E01C0E4CFE0CF94
:1002F20080CFFFCFC198C29AE2E0F0E0FA93EA938E
:100302000C94C501C198C298E2E0F0E0FA93EA9336
:100312000C94C501E1E0EBBBE8CEE0E5EBBBEADE25
:10032200E1E4EBBBE7DEE3E5EBBBE4DEE3E5EBBBFD
:10033200E1CEE0E2EBBBDECEEFE4EBBBDBCEE5E40D
:10034200EBBBD8CEE2E5EBBBD5CEEAE3EBBBD2CE3C
:10035200E0E5EBBBCFDEF0CFE3E5EBBBCBDEF5CFE9
:10036200EBBBC8DEE1E6EBBBC5DEE2E6EBBBC2DE21
:10037200ECE6EBBBBFDEE5E6EBBBBCCEE6E9F0E0CC
:10038200FA93EA930C94C501E991F991309639F008
:1003920080ED97E00197F1F7A8953197C9F7089595
:00000001FF
